{
  "contractName": "Investment",
  "abi": [
    {
      "constant": true,
      "inputs": [],
      "name": "investor",
      "outputs": [
        {
          "name": "",
          "type": "address"
        }
      ],
      "payable": false,
      "stateMutability": "view",
      "type": "function"
    },
    {
      "constant": true,
      "inputs": [],
      "name": "student",
      "outputs": [
        {
          "name": "",
          "type": "address"
        }
      ],
      "payable": false,
      "stateMutability": "view",
      "type": "function"
    },
    {
      "constant": true,
      "inputs": [],
      "name": "chancez",
      "outputs": [
        {
          "name": "",
          "type": "address"
        }
      ],
      "payable": false,
      "stateMutability": "view",
      "type": "function"
    },
    {
      "constant": true,
      "inputs": [],
      "name": "studentReceived",
      "outputs": [
        {
          "name": "",
          "type": "bool"
        }
      ],
      "payable": false,
      "stateMutability": "view",
      "type": "function"
    },
    {
      "constant": true,
      "inputs": [],
      "name": "investorSent",
      "outputs": [
        {
          "name": "",
          "type": "bool"
        }
      ],
      "payable": false,
      "stateMutability": "view",
      "type": "function"
    },
    {
      "constant": true,
      "inputs": [],
      "name": "contractFulfilled",
      "outputs": [
        {
          "name": "",
          "type": "bool"
        }
      ],
      "payable": false,
      "stateMutability": "view",
      "type": "function"
    },
    {
      "inputs": [],
      "payable": false,
      "stateMutability": "nonpayable",
      "type": "constructor"
    },
    {
      "payable": true,
      "stateMutability": "payable",
      "type": "fallback"
    },
    {
      "anonymous": false,
      "inputs": [
        {
          "indexed": false,
          "name": "investor",
          "type": "address"
        },
        {
          "indexed": false,
          "name": "student",
          "type": "address"
        }
      ],
      "name": "StartInvestmentEvent",
      "type": "event"
    },
    {
      "constant": false,
      "inputs": [],
      "name": "registerAsReceiver",
      "outputs": [],
      "payable": false,
      "stateMutability": "nonpayable",
      "type": "function"
    },
    {
      "constant": false,
      "inputs": [],
      "name": "registerAsChancez",
      "outputs": [],
      "payable": false,
      "stateMutability": "nonpayable",
      "type": "function"
    },
    {
      "constant": false,
      "inputs": [
        {
          "name": "_chancez",
          "type": "address"
        }
      ],
      "name": "pay",
      "outputs": [
        {
          "name": "success",
          "type": "bool"
        }
      ],
      "payable": true,
      "stateMutability": "payable",
      "type": "function"
    },
    {
      "constant": false,
      "inputs": [
        {
          "name": "_student",
          "type": "address"
        }
      ],
      "name": "claim",
      "outputs": [
        {
          "name": "success",
          "type": "bool"
        }
      ],
      "payable": true,
      "stateMutability": "payable",
      "type": "function"
    }
  ],
  "bytecode": "0x608060405234801561001057600080fd5b50336000806101000a81548173ffffffffffffffffffffffffffffffffffffffff021916908373ffffffffffffffffffffffffffffffffffffffff160217905550610753806100606000396000f3006080604052600436106100a4576000357c0100000000000000000000000000000000000000000000000000000000900463ffffffff1680630c11dedd146100a95780631e0018d6146100f75780631e83409a1461014e578063699450e81461019c5780638e488235146101f3578063998303111461024a578063a9b99fe414610279578063c4701893146102a8578063cb35d9c1146102bf578063d9062878146102d6575b600080fd5b6100dd600480360381019080803573ffffffffffffffffffffffffffffffffffffffff169060200190929190505050610305565b604051808215151515815260200191505060405180910390f35b34801561010357600080fd5b5061010c6103a9565b604051808273ffffffffffffffffffffffffffffffffffffffff1673ffffffffffffffffffffffffffffffffffffffff16815260200191505060405180910390f35b610182600480360381019080803573ffffffffffffffffffffffffffffffffffffffff1690602001909291905050506103ce565b604051808215151515815260200191505060405180910390f35b3480156101a857600080fd5b506101b1610488565b604051808273ffffffffffffffffffffffffffffffffffffffff1673ffffffffffffffffffffffffffffffffffffffff16815260200191505060405180910390f35b3480156101ff57600080fd5b506102086104ae565b604051808273ffffffffffffffffffffffffffffffffffffffff1673ffffffffffffffffffffffffffffffffffffffff16815260200191505060405180910390f35b34801561025657600080fd5b5061025f6104d4565b604051808215151515815260200191505060405180910390f35b34801561028557600080fd5b5061028e6104e7565b604051808215151515815260200191505060405180910390f35b3480156102b457600080fd5b506102bd6104fa565b005b3480156102cb57600080fd5b506102d4610674565b005b3480156102e257600080fd5b506102eb610714565b604051808215151515815260200191505060405180910390f35b6000803490508273ffffffffffffffffffffffffffffffffffffffff166108fc829081150290604051600060405180830381858888f19350505050158015610351573d6000803e3d6000fd5b5080600660008573ffffffffffffffffffffffffffffffffffffffff1673ffffffffffffffffffffffffffffffffffffffff168152602001908152602001600020600082825401925050819055506001915050919050565b6000809054906101000a900473ffffffffffffffffffffffffffffffffffffffff1681565b60008060003491506005348115156103e257fe5b0490508373ffffffffffffffffffffffffffffffffffffffff166108fc8284039081150290604051600060405180830381858888f1935050505015801561042d573d6000803e3d6000fd5b50808203600660008673ffffffffffffffffffffffffffffffffffffffff1673ffffffffffffffffffffffffffffffffffffffff16815260200190815260200160002060008282540192505081905550600192505050919050565b600160009054906101000a900473ffffffffffffffffffffffffffffffffffffffff1681565b600260009054906101000a900473ffffffffffffffffffffffffffffffffffffffff1681565b600260159054906101000a900460ff1681565b600260149054906101000a900460ff1681565b600073ffffffffffffffffffffffffffffffffffffffff16600260009054906101000a900473ffffffffffffffffffffffffffffffffffffffff1673ffffffffffffffffffffffffffffffffffffffff1614151561055757600080fd5b33600260006101000a81548173ffffffffffffffffffffffffffffffffffffffff021916908373ffffffffffffffffffffffffffffffffffffffff1602179055507fbc581072d02e1a55bad1fb93fffbd649c8b23235d4efea27ff906914cad6b5026000809054906101000a900473ffffffffffffffffffffffffffffffffffffffff16600160009054906101000a900473ffffffffffffffffffffffffffffffffffffffff16604051808373ffffffffffffffffffffffffffffffffffffffff1673ffffffffffffffffffffffffffffffffffffffff1681526020018273ffffffffffffffffffffffffffffffffffffffff1673ffffffffffffffffffffffffffffffffffffffff1681526020019250505060405180910390a1565b600073ffffffffffffffffffffffffffffffffffffffff16600160009054906101000a900473ffffffffffffffffffffffffffffffffffffffff1673ffffffffffffffffffffffffffffffffffffffff161415156106d157600080fd5b33600160006101000a81548173ffffffffffffffffffffffffffffffffffffffff021916908373ffffffffffffffffffffffffffffffffffffffff160217905550565b600560009054906101000a900460ff16815600a165627a7a723058204b4918f5f6b95017daa339a53e84fdf8565f834c6f327e59fea600353276edf90029",
  "source": "pragma solidity ^0.4.18;\r\n\r\n    /**\r\n    * Example script for the Ethereum development walkthrough\r\n    */\r\n\r\ncontract Investment {\r\n    /**\r\n    * Our wrestlers\r\n    */\r\n    address public investor;\r\n    address public student;\r\n    address public chancez;\r\n\r\n    bool public investorSent;\r\n    bool public studentReceived;\r\n\r\n    uint private investorDeposit;\r\n    uint private studentDeposit;\r\n\r\n    bool public contractFulfilled;\r\n\r\n    mapping(address => uint256) balance;\r\n\r\n\r\n    event StartInvestmentEvent(address investor, address student);\r\n\r\n    /**\r\n    * The contract constructor\r\n    */\r\n    constructor() public {\r\n\t    investor = msg.sender;\r\n    }\r\n\r\n\r\n    function registerAsReceiver() public {\r\n        require(student == address(0));\r\n\r\n        student = msg.sender;\r\n\r\n    }\r\n\r\n    function registerAsChancez() public {\r\n        require(chancez == address(0));\r\n\r\n        chancez = msg.sender;\r\n        emit StartInvestmentEvent(investor, student);\r\n    }\r\n\r\n    function pay(address _chancez) public payable returns(bool success) {\r\n        // uint paid = msg.value\r\n        uint paid = msg.value;\r\n        _chancez.transfer(paid);\r\n        balance[_chancez] += paid;\r\n        return true;\r\n    }\r\n\r\n    function claim(address _student) public payable returns(bool success) {\r\n        uint amount = msg.value;\r\n        uint txfee = ((msg.value)/5);\r\n        _student.transfer(amount - txfee);\r\n        balance[_student] += (amount - txfee);\r\n        return true;\r\n    }\r\n\r\n\r\n    function () public payable {\r\n        revert();\r\n    }\r\n}",
  "sourcePath": "C:\\Users\\Ash\\Documents\\Blockchain\\chancez\\contracts\\Investment.sol",
  "compiler": {
    "name": "solc",
    "version": "0.4.24+commit.e67f0147.Emscripten.clang"
  },
  "schemaVersion": "2.0.1",
  "updatedAt": "2018-12-01T03:40:19.789Z"
}